:020000040800F2
:1000000000500020210B0008ED2C0008F92C0008FE
:10001000FF2C0008052D00080B2D00080000000033
:10002000000000000000000000000000112D00088A
:100030001D2D000800000000292D0008352D0008A6
:10004000690B0008690B0008690B0008690B0008C0
:10005000690B0008690B0008690B0008690B0008B0
:10006000690B0008690B0008690B0008690B0008A0
:10007000690B0008690B0008690B0008690B000890
:10008000690B0008690B0008690B0008690B000880
:10009000690B0008690B0008690B0008690B000870
:1000A000690B0008690B0008690B0008690B000860
:1000B000690B0008690B0008690B0008690B000850
:1000C000690B0008690B0008690B0008690B000840
:1000D000690B0008690B0008690B0008690B000830
:1000E000690B0008690B0008690B0008000000009C
:1000F0000000000000000000000000000000000000
:0C01000000000000000000005FF808F1A3
:10011000044B05481B1A062B02D9044B03B11847A0
:10012000704700BF0F0000200C00002000000000FE
:1001300005490648091A891001EBD171491002D00E
:10014000034B03B1184770470C0000200C0000203F
:100150000000000010B5064C237843B9FFF7D8FF24
:10016000044B13B10448AFF300800123237010BD8A
:100170000C000020000000007831000808B5084B92
:100180001BB108490848AFF300800848036813B959
:10019000BDE80840CCE7064B002BF9D09847F7E7BD
:1001A0000000000010000020783100080C00002042
:1001B0000000000081F0004102E000BF83F0004336
:1001C00030B54FEA41044FEA430594EA050F08BFF2
:1001D00090EA020F1FBF54EA000C55EA020C7FEAB6
:1001E000645C7FEA655C00F0E2804FEA5454D4EB33
:1001F0005555B8BF6D420CDD2C4480EA020281EAFD
:10020000030382EA000083EA010180EA020281EA34
:100210000303362D88BF30BD11F0004F4FEA013186
:100220004FF4801C4CEA113102D0404261EB410195
:1002300013F0004F4FEA03334CEA133302D052421B
:1002400063EB430394EA050F00F0A780A4F10104D7
:10025000D5F1200E0DDB02FA0EFC22FA05F2801811
:1002600041F1000103FA0EF2801843FA05F35941F7
:100270000EE0A5F120050EF1200E012A03FA0EFC76
:1002800028BF4CF0020C43FA05F3C01851EBE371A0
:1002900001F0004507D54FF0000EDCF1000C7EEBBD
:1002A00000006EEB0101B1F5801F1BD3B1F5001FFB
:1002B0000CD349085FEA30004FEA3C0C04F101041A
:1002C0004FEA445212F5800F80F09A80BCF1004F43
:1002D00008BF5FEA500C50F1000041EB045141EAC5
:1002E000050130BD5FEA4C0C404141EB010111F4C6
:1002F000801FA4F10104E9D191F0000F04BF014671
:100300000020B1FA81F308BF2033A3F10B03B3F14E
:1003100020020CDA0C3208DD02F1140CC2F10C02DE
:1003200001FA0CF021FA02F10CE002F11402D8BF3C
:10033000C2F1200C01FA02F120FA0CFCDCBF41EA08
:100340000C019040E41AA2BF01EB0451294330BDD7
:100350006FEA04041F3C1CDA0C340EDC04F11404B4
:10036000C4F1200220FA04F001FA02F340EA03008B
:1003700021FA04F345EA030130BDC4F10C04C4F1D1
:10038000200220FA02F001FA04F340EA03002946B1
:1003900030BD21FA04F0294630BD94F0000F83F4FB
:1003A000801306BF81F480110134013D4EE77FEADE
:1003B000645C18BF7FEA655C29D094EA050F08BF2A
:1003C00090EA020F05D054EA000C04BF194610460B
:1003D00030BD91EA030F1EBF0021002030BD5FEA4F
:1003E000545C05D14000494128BF41F0004130BD77
:1003F00014F580043CBF01F5801130BD01F00045CB
:1004000045F0FE4141F470014FF0000030BD7FEA3D
:10041000645C1ABF194610467FEA655C1CBF0B4638
:10042000024650EA013406BF52EA033591EA030F4F
:1004300041F4002130BD00BF90F0000F04BF002147
:10044000704730B54FF4806404F132044FF000057A
:100450004FF0000150E700BF90F0000F04BF0021F3
:10046000704730B54FF4806404F1320410F0004559
:1004700048BF40424FF000013EE700BF42004FEA54
:10048000E2014FEA31014FEA02701FBF12F07F43D1
:1004900093F07F4F81F06051704792F0000F14BFCE
:1004A00093F07F4F704730B54FF4607401F0004512
:1004B00021F0004120E700BF50EA010208BF704769
:1004C00030B54FF000050AE050EA010208BF70475E
:1004D00030B511F0004502D5404261EB41014FF4C7
:1004E000806404F132045FEA915C3FF4DCAE4FF0CB
:1004F00003025FEADC0C18BF03325FEADC0C18BFB2
:10050000033202EBDC02C2F1200300FA03FC20FA02
:1005100002F001FA03FE40EA0E0021FA02F114444F
:10052000C1E600BF70B54FF0FF0C4CF4E06C1CEA64
:1005300011541DBF1CEA135594EA0C0F95EA0C0FD9
:1005400000F0DEF82C4481EA030621EA4C5123EA4C
:100550004C5350EA013518BF52EA033541F480117B
:1005600043F4801338D0A0FB02CE4FF00005E1FB2E
:1005700002E506F00042E0FB03E54FF00006E1FB78
:1005800003569CF0000F18BF4EF0010EA4F1FF04BB
:10059000B6F5007F64F5407404D25FEA4E0E6D41FB
:1005A00046EB060642EAC62141EA55514FEAC5200C
:1005B00040EA5E504FEACE2EB4F1FD0C88BFBCF588
:1005C000E06F1ED8BEF1004F08BF5FEA500E50F139
:1005D000000041EB045170BD06F0004646EA0101FF
:1005E00040EA020081EA0301B4EB5C04C2BFD4EB31
:1005F0000C0541EA045170BD41F480114FF0000E2A
:10060000013C00F3AB8014F1360FDEBF002001F097
:10061000004170BDC4F10004203C35DA0C341BDC11
:1006200004F11404C4F1200500FA05F320FA04F0E3
:1006300001FA05F240EA020001F0004221F0004117
:1006400010EBD37021FA04F642EB06015EEA430E8A
:1006500008BF20EAD37070BDC4F10C04C4F12005BA
:1006600000FA04F320FA05F001FA04F240EA02006D
:1006700001F0004110EBD37041F100015EEA430E3E
:1006800008BF20EAD37070BDC4F1200500FA05F25E
:100690004EEA020E20FA04F301FA05F243EA0203DD
:1006A00021FA04F001F0004121FA04F220EA0200EC
:1006B00000EBD3705EEA430E08BF20EAD37070BD32
:1006C00094F0000F0FD101F00046400041EB010112
:1006D00011F4801F08BF013CF7D041EA060195F0F4
:1006E000000F18BF704703F00046520043EB0303AE
:1006F00013F4801F08BF013DF7D043EA060370479B
:1007000094EA0C0F0CEA135518BF95EA0C0F0CD0A5
:1007100050EA410618BF52EA4306D1D181EA0301EB
:1007200001F000414FF0000070BD50EA410606BFE5
:100730001046194652EA430619D094EA0C0F02D12A
:1007400050EA013613D195EA0C0F05D152EA03366F
:100750001CBF104619460AD181EA030101F000418D
:1007600041F0FE4141F470014FF0000070BD41F0D6
:10077000FE4141F4780170BD70B54FF0FF0C4CF4B0
:10078000E06C1CEA11541DBF1CEA135594EA0C0FCF
:1007900095EA0C0F00F0A7F8A4EB050481EA030E1C
:1007A00052EA03354FEA013100F088804FEA033303
:1007B0004FF0805545EA131343EA12634FEA0222D1
:1007C00045EA111545EA10654FEA00260EF0004192
:1007D0009D4208BF964244F1FD0404F5407402D2E4
:1007E0005B084FEA3202B61A65EB03055B084FEA75
:1007F00032024FF480104FF4002CB6EB020E75EB72
:10080000030E22BFB61A754640EA0C005B084FEA99
:100810003202B6EB020E75EB030E22BFB61A754616
:1008200040EA5C005B084FEA3202B6EB020E75EB61
:10083000030E22BFB61A754640EA9C005B084FEAD9
:100840003202B6EB020E75EB030E22BFB61A7546E6
:1008500040EADC0055EA060E18D04FEA051545EAD5
:1008600016754FEA06164FEAC30343EA52734FEA7E
:10087000C2025FEA1C1CC0D111F4801F0BD141EAF7
:1008800000014FF000004FF0004CB6E711F4801F5C
:1008900004BF01430020B4F1FD0C88BFBCF5E06F3C
:1008A0003FF6AFAEB5EB030C04BFB6EB020C5FEA4C
:1008B000500C50F1000041EB045170BD0EF0004EA1
:1008C0004EEA113114EB5C04C2BFD4EB0C0541EAD3
:1008D000045170BD41F480114FF0000E013C90E6D0
:1008E00045EA060E8DE60CEA135594EA0C0F08BF94
:1008F00095EA0C0F3FF43BAF94EA0C0F0AD150EA93
:1009000001347FF434AF95EA0C0F7FF425AF104625
:1009100019462CE795EA0C0F06D152EA03353FF44D
:10092000FDAE1046194622E750EA410618BF52EACA
:1009300043067FF4C5AE50EA41047FF40DAF52EA9E
:1009400043057FF4EBAE12E74FEA4102B2F1E04318
:1009500024BFB3F5001CDCF1FE5C0DD901F0004CA6
:100960004FEAC0024CEA5070B2F1004F40EB8300F6
:1009700008BF20F00100704711F0804F21D113F122
:100980003872BCBF01F00040704741F480114FEA5B
:100990005252C2F11802C2F1200C10FA0CF320FAE4
:1009A00002F018BF40F001004FEAC1234FEAD32301
:1009B00003FA0CFC40EA0C0023FA02F34FEA43036B
:1009C000CCE77FEA625307D150EA01331EBF4FF0F4
:1009D000FE4040F44000704701F0004040F0FE400F
:1009E00040F40000704700BF4FEA4002B2F1FE4FF2
:1009F0000FD34FF09E03B3EB12620DD94FEA0023E1
:100A000043F0004310F0004F23FA02F018BF4042B9
:100A100070474FF00000704712F1610F01D14202A0
:100A200005D110F0004008BF6FF0004070474FF054
:100A30000000704770B50F4E0F4D761BB61018BFF3
:100A4000002405D0013455F8043B9847A642F9D15B
:100A50000A4E0B4D02F090FB761BB61018BF002417
:100A600006D0013455F8043B9847A642F9D170BD31
:100A700070BD00BFBC310008BC310008C0310008A7
:100A8000BC31000870B4860746D0541E002A41D0FD
:100A9000CAB2034602E014F1FF343BD303F8012B42
:100AA0009D07F8D1032C2ED9CDB245EA05250F2C90
:100AB00045EA054519D9264603F11002103E0F2ECE
:100AC00042F8105C42F80C5C42F8085C42F8045CA6
:100AD00002F11002F2D8A4F1100222F00F0204F089
:100AE0000F041032032C13440DD91E462246043A3B
:100AF000032A46F8045BFAD8221F22F003020432CC
:100B0000134404F003042CB1C9B21C4403F8011BC4
:100B10009C42FBD170BC704714460346C2E700BF3D
:100B2000002103E00B4B5B58435004310A480B4B48
:100B300042189A42F6D30A4A02E0002342F8043BE4
:100B4000084B9A42F9D302F0FBF8FFF773FF02F06B
:100B500039F87047C4310008000000200C00002064
:100B60000C000020C0000020FEE7000080B500AFB0
:100B7000084A084B1B6843F010031360032000F081
:100B800027F9002000F008F802F07EF8002318464C
:100B900080BD00BF0020024080B582B000AF786009
:100BA000124B1A68124B1B7819464FF47A73B3FB39
:100BB000F1F3B2FBF3F3184600F031F90346002BD2
:100BC00001D001230EE07B680F2B0AD80022796840
:100BD0004FF0FF3000F007F9064A7B6813600023EE
:100BE00000E0012318460837BD4680BD08000020FC
:100BF000040000200000002080B400AF054B1B78EB
:100C00001A46054B1B681344034A136000BFBD46D8
:100C100080BC7047040000202800002080B400AF92
:100C2000024B1B681846BD4680BC70472800002058
:100C300080B584B000AF7860FFF7F0FFB8607B68E4
:100C4000FB60FB68B3F1FF3F05D0094B1B781A46E8
:100C5000FB681344FB6000BFFFF7E0FF0246BB6880
:100C6000D21AFB689A42F7D300BF1037BD4680BD49
:100C70000400002080B485B000AF78607B6803F08A
:100C80000703FB600C4BDB68BB60BA684FF6FF03E1
:100C90001340BB60FB681A02BB68134343F0BF6399
:100CA00043F40033BB60044ABB68D36000BF143711
:100CB000BD4680BC704700BF00ED00E080B400AFCF
:100CC000044BDB681B0A03F007031846BD4680BCD3
:100CD000704700BF00ED00E080B483B000AF034672
:100CE0003960FB7197F90730002B0ADB0D4997F942
:100CF00007303A68D2B21201D2B20B4483F8002313
:100D00000AE00949FB7903F00F03043B3A68D2B2C9
:100D10001201D2B20B441A7600BF0C37BD4680BC1C
:100D2000704700BF00E100E000ED00E080B489B052
:100D300000AFF860B9607A60FB6803F00703FB61FD
:100D4000FB69C3F10703042B28BF0423BB61FB69C4
:100D50000433062B02D9FB69033B00E000237B61CF
:100D60000122BB6902FA03F35A1EBB681A407B6971
:100D70009A4001217B6901FA03F3591E7B680B40FD
:100D8000134318462437BD4680BC704780B582B0F7
:100D900000AF78607B68013BB3F1807F01D3012312
:100DA0000FE00A4A7B68013B53600F214FF0FF3090
:100DB000FFF792FF054B00229A60044B07221A604E
:100DC000002318460837BD4680BD00BF10E000E094
:100DD00080B582B000AF78607868FFF74BFF00BF46
:100DE0000837BD4680BD80B586B000AF0346B96008
:100DF0007A60FB7300237B61FFF760FF78617A689C
:100E0000B9687869FFF792FF024697F90F301146EB
:100E10001846FFF761FF00BF1837BD4680BD80B59B
:100E200082B000AF78607868FFF7B0FF03461846DD
:100E30000837BD4680BD000080B48BB000AF78603D
:100E4000396000237B6200233B6227E101227B6A39
:100E500002FA03F3FB613B681A68FB691340BB614C
:100E6000BA69FB699A4240F016813B685B68122BB5
:100E700034D0122B0DD8022B2BD0022B04D8002BF0
:100E800031D0012B1CD048E0032B43D0112B1BD0B9
:100E900043E0894A934226D0874A934206D8874A3C
:100EA000934220D0864A93421DD036E0854A934231
:100EB00019D0854A934216D0844A934213D02CE02D
:100EC0003B68DB683B6228E03B68DB6804333B62DD
:100ED00023E03B68DB6808333B621EE03B68DB686D
:100EE0000C333B6219E03B689B68002B02D1042362
:100EF0003B6212E03B689B68012B05D108233B62F3
:100F00007B68FA691A6108E008233B627B68FA692A
:100F10005A6102E000233B6200BFBB69FF2B01D88E
:100F20007B6801E07B6804337B61BB69FF2B02D8DF
:100F30007B6A9B0002E07B6A083B9B003B617B690C
:100F40001A680F213B6901FA03F3DB431A40396A3F
:100F50003B6901FA03F31A437B691A603B685B68DB
:100F600003F08053002B00F09680594A584B9B6940
:100F700043F001039361564B9B6903F00103BB608F
:100F8000BB68544A7B6A9B08023352F82330FB60EB
:100F90007B6A03F003039B000F2202FA03F3DB4397
:100FA000FA681340FB607B684B4A934213D07B681E
:100FB0004A4A93420DD07B68494A934207D07B68E6
:100FC000484A934201D1032306E0042304E00223AC
:100FD00002E0012300E000237A6A02F0030292009B
:100FE0009340FA681343FB603A497B6A9B080233DB
:100FF000FA6841F823203B685B6803F48033002BD8
:1010000006D03949384B1A68BB6913430B6006E0B8
:101010003549354B1A68BB69DB4313400B603B68AD
:101020005B6803F40033002B06D02F492E4B5A681F
:10103000BB6913434B6006E02B492B4B5A68BB69D5
:10104000DB4313404B603B685B6803F48013002B69
:1010500006D02549244B9A68BB6913438B6006E090
:101060002149214B9A68BB69DB4313408B603B6885
:101070005B6803F40013002B06D01B491A4BDA6897
:10108000BB691343CB6006E01749174BDA68BB69AD
:10109000DB431340CB607B6A01337B623B681A6899
:1010A0007B6A22FA03F3002B7FF4D0AE00BF2C370B
:1010B000BD4680BC704700BF000021100000111029
:1010C0000000121000003110000032100000221049
:1010D000001002400000014000080140000C0140E7
:1010E00000100140001401400004014090B585B09B
:1010F00000AF78607B68002B01D101230FE17B6892
:1011000093F83D30DBB2002B06D17B68002283F8D8
:101110003C20786801F016FD7B68242283F83D208E
:101120007B681B687A681268126822F001021A60F4
:1011300001F03EFBF8607B685B687B4A934207D80E
:10114000FB687A4A934294BF01230023DBB206E096
:10115000FB68774A934294BF01230023DBB2002B44
:1011600001D00123DBE0FB68724AA2FB03239B0C46
:10117000BB607B681B687A681268526822F03F0186
:10118000BA680A435A607B681A687B681B681B6AE6
:1011900023F03F017B685B686348834202D8BB68E9
:1011A000013309E0BB684FF4967000FB03F362481B
:1011B000A0FB03039B0901330B4313627B68186890
:1011C0007B681B68DB6923F44F4222F0FF027B68D7
:1011D0005B6855498B420DD8FB68591E7B685B687C
:1011E0005B00B1FBF3F30133C3F30B03042B38BFF4
:1011F00004234FE07B689B68002B11D1FB685C1EC9
:101200007B6859680B465B000B44B4FBF3F3013376
:10121000C3F30B03002B0CBF01230023DBB212E04E
:10122000FB685C1E7B6859680B469B000B44990069
:101230000B44B4FBF3F30133C3F30B03002B0CBFDC
:1012400001230023DBB2002B01D0012322E07B68C5
:101250009B68002B0ED1FB685C1E7B6859680B46AF
:101260005B000B44B4FBF3F30133C3F30B0343F410
:1012700000430FE0FB685C1E7B6859680B469B00CF
:101280000B4499000B44B4FBF3F30133C3F30B039A
:1012900043F440431343C3617B681B687A68126858
:1012A000126822F0C0017A68D0697A68126A024333
:1012B0000A431A607B681A687B681B689B6823F482
:1012C000034323F0FF03796808697968C96801431B
:1012D0000B4393607B681B687A681268D26822F0BF
:1012E000FF017A6850697A68926902430A43DA60BA
:1012F0007B681B687A681268126842F001021A6003
:101300007B6800221A647B68202283F83D207B687A
:1013100000221A637B68002283F83E2000231846CF
:101320001437BD4690BD00BFA08601007F841E001B
:10133000FF083D0083DE1B43D34D621080B588B0AB
:1013400002AFF860084611461A4603467B810B46F9
:101350003B811346FB80FFF761FC7861FB6893F8E3
:101360003D30DBB2202B40F0D9807B6900931923FC
:1013700001226D49F86800F069FC0346002B01D09A
:101380000223CCE0FB6893F83C30012B01D102230F
:10139000C5E0FB68012283F83C20FB681B681B68E2
:1013A00003F00103012B07D0FB681B68FA68126881
:1013B000126842F001021A60FB681B68FA68126842
:1013C000126822F400621A60FB68212283F83D2033
:1013D000FB68402283F83E20FB6800221A64FB6809
:1013E0003A6A5A62FB68BA8C5A85FB685B8D9AB27E
:1013F000FB681A85FB684D4ADA62F8883A89798970
:101400007B690193BB6A00930346F86800F0C6FA53
:101410000346002B52D0012381E07A69B96AF8684B
:1014200000F0EAFC0346002B0DD0FB681B6C042B7C
:1014300007D1FB681B68FA681268126842F40072F0
:101440001A6001236BE0FB681B68FA68526A127825
:101450001A61FB685B6A5A1CFB685A62FB681B8D49
:10146000013B9AB2FB681A85FB685B8D9BB2013B1E
:101470009AB2FB685A85FB681B685B6903F004033A
:10148000042B1BD1FB681B8D002B17D0FB681B683E
:10149000FA68526A12781A61FB685B6A5A1CFB6828
:1014A0005A62FB681B8D013B9AB2FB681A85FB6888
:1014B0005B8D9BB2013B9AB2FB685A85FB681B8D22
:1014C000002BAAD17A69B96AF86800F0D6FC034605
:1014D000002B0DD0FB681B6C042B07D1FB681B682D
:1014E000FA681268126842F400721A60012316E06A
:1014F000FB681B68FA681268126842F400721A608E
:10150000FB68202283F83D20FB68002283F83E2000
:10151000FB68002283F83C20002300E002231846E9
:101520001837BD4680BD00BF020010000000FFFF5D
:1015300080B58CB002AFF860084611461A460346E3
:101540007B810B463B811346FB80FFF767FB78628C
:10155000FB6893F83D30DBB2202B40F018827B6AA9
:101560000093192301228149F86800F06FFB0346BC
:10157000002B01D002230BE2FB6893F83C30012BD7
:1015800001D1022304E2FB68012283F83C20FB68BE
:101590001B681B6803F00103012B07D0FB681B6865
:1015A000FA681268126842F001021A60FB681B6850
:1015B000FA681268126822F400621A60FB6822223C
:1015C00083F83D20FB68402283F83E20FB68002220
:1015D0001A64FB683A6B5A62FB68BA8E5A85FB68DC
:1015E0005B8D9AB2FB681A85FB68614ADA62F888FB
:1015F0003A8979897B6A0193BB6B00930346F8684B
:1016000000F054FA0346002B01D00123C0E1FB682F
:101610001B8D002B13D100233B62FB681B685B69A9
:101620003B62FB681B689B693B623B6AFB681B680B
:10163000FA681268126842F400721A6094E1FB685A
:101640001B8D012B1DD1FB681B68FA68126812689C
:1016500022F480621A6072B60023FB61FB681B688B
:101660005B69FB61FB681B689B69FB61FB69FB684D
:101670001B68FA681268126842F400721A6062B657
:1016800072E1FB681B8D022B1DD1FB681B68FA6899
:101690001268126842F400621A6072B60023BB61DD
:1016A000FB681B685B69BB61FB681B689B69BB616E
:1016B000BB69FB681B68FA681268126822F48062D2
:1016C0001A6062B650E1FB681B68FA68126812681B
:1016D00042F480621A6000237B61FB681B685B69CF
:1016E0007B61FB681B689B697B617B693CE1FB68F4
:1016F0001B8D032B00F2F580FB681B8D012B23D182
:101700007A6AB96BF86800F0F9FB0346002B01D048
:1017100001233DE1FB685B6AFA6812681269D2B284
:101720001A70FB685B6A5A1CFB685A62FB681B8D67
:10173000013B9AB2FB681A85FB685B8D9BB2013B4B
:101740009AB2FB685A850FE1FB681B8D022B50D1C2
:101750007B6A0093BB6B00220649F86800F076FABA
:101760000346002B08D0012312E100BF0200100045
:101770000000FFFF0400010072B6FB681B68FA68F6
:101780001268126842F400721A60FB685B6AFA68B9
:1017900012681269D2B21A70FB685B6A5A1CFB6845
:1017A0005A62FB681B8D013B9AB2FB681A85FB6885
:1017B0005B8D9BB2013B9AB2FB685A8562B6FB68AF
:1017C0005B6AFA6812681269D2B21A70FB685B6AC7
:1017D0005A1CFB685A62FB681B8D013B9AB2FB687E
:1017E0001A85FB685B8D9BB2013B9AB2FB685A85F8
:1017F000BAE07B6A0093BB6B00226749F86800F08F
:1018000025FA0346002B01D00123C1E0FB681B68C9
:10181000FA681268126822F480621A6072B6FB6875
:101820005B6AFA6812681269D2B21A70FB685B6A66
:101830005A1CFB685A62FB681B8D013B9AB2FB681D
:101840001A85FB685B8D9BB2013B9AB2FB685A8597
:101850007B6A0093BB6B00224F49F86800F0F6F9F1
:101860000346002B01D0012392E0FB681B68FA6855
:101870001268126842F400721A60FB685B6AFA68C8
:1018800012681269D2B21A70FB685B6A5A1CFB6854
:101890005A62FB681B8D013B9AB2FB681A85FB6894
:1018A0005B8D9BB2013B9AB2FB685A8562B6FB68BE
:1018B0005B6AFA6812681269D2B21A70FB685B6AD6
:1018C0005A1CFB685A62FB681B8D013B9AB2FB688D
:1018D0001A85FB685B8D9BB2013B9AB2FB685A8507
:1018E00042E07A6AB96BF86800F008FB0346002B07
:1018F00001D001234CE0FB685B6AFA681268126948
:10190000D2B21A70FB685B6A5A1CFB685A62FB68A9
:101910001B8D013B9AB2FB681A85FB685B8D9BB2FD
:10192000013B9AB2FB685A85FB681B685B6903F050
:101930000403042B18D1FB685B6AFA681268126909
:10194000D2B21A70FB685B6A5A1CFB685A62FB6869
:101950001B8D013B9AB2FB681A85FB685B8D9BB2BD
:10196000013B9AB2FB685A85FB681B8D002B7FF404
:10197000BEAEFB68202283F83D20FB68002283F87E
:101980003E20FB68002283F83C20002300E0022375
:1019900018462837BD4680BD0400010080B588B0D8
:1019A00002AFF860084611461A4603467B810B4693
:1019B0003B811346FB80FB681B68FA68126812685B
:1019C00042F480721A607B6A00933B6A00224FF0F7
:1019D0000111F86800F03AF90346002B01D0012309
:1019E0005EE0FB681B687A89D2B202F0FE021A61DF
:1019F0007B6A3A6A2C49F86800F07FF90346002BAD
:101A000001D001234CE000237B61FB681B685B690C
:101A10007B61FB681B689B697B617B697A6A396AB9
:101A2000F86800F0E9F90346002B0DD0FB681B6C49
:101A3000042B07D1FB681B68FA681268126842F42D
:101A400000721A6001232BE0FB88012B05D1FB6893
:101A50001B683A89D2B21A6121E0FB681B683A8997
:101A6000120A92B2D2B21A617A6A396AF86800F040
:101A7000C3F90346002B0DD0FB681B6C042B07D168
:101A8000FB681B68FA681268126842F400721A60F8
:101A9000012305E0FB681B683A89D2B21A61002372
:101AA00018461837BD4680BD0200010080B588B0D9
:101AB00002AFF860084611461A4603467B810B4682
:101AC0003B811346FB80FB681B68FA68126812684A
:101AD00042F480621A60FB681B68FA681268126838
:101AE00042F480721A607B6A00933B6A00224FF0D6
:101AF0000111F86800F0AAF80346002B01D0012379
:101B00009DE0FB681B687A89D2B202F0FE021A617E
:101B10007B6A3A6A4C49F86800F0EFF80346002BFC
:101B200001D001238BE000237B61FB681B685B69AC
:101B30007B61FB681B689B697B617B697A6A396A98
:101B4000F86800F059F90346002B0DD0FB681B6CB8
:101B5000042B07D1FB681B68FA681268126842F40C
:101B600000721A6001236AE0FB88012B05D1FB6833
:101B70001B683A89D2B21A6121E0FB681B683A8976
:101B8000120A92B2D2B21A617A6A396AF86800F01F
:101B900033F90346002B0DD0FB681B6C042B07D1D7
:101BA000FB681B68FA681268126842F400721A60D7
:101BB000012344E0FB681B683A89D2B21A617A6A51
:101BC000396AF86800F018F90346002B0DD0FB685D
:101BD0001B6C042B07D1FB681B68FA68126812683B
:101BE00042F400721A60012329E0FB681B68FA685E
:101BF0001268126842F480721A607B6A00933B6A32
:101C000000224FF00111F86800F020F80346002B85
:101C100001D0012313E0FB681B687A89D2B242F03D
:101C20000102D2B21A617B6A3A6A0749F86800F089
:101C300064F80346002B01D0012300E0002318467E
:101C40001837BD4680BD00BF0200010080B584B0DA
:101C500000AFF860B9603B601346FB7125E03B685C
:101C6000B3F1FF3F21D0FEF7D9FF0246BB69D21A7C
:101C70003B689A4202D83B68002B16D1FB680022D1
:101C80001A63FB68202283F83D20FB68002283F85A
:101C90003E20FB681B6C43F02002FB681A64FB6863
:101CA000002283F83C20012323E0BB681B0CDBB23D
:101CB000012B0DD1FB681B685B69DA43BB681340DD
:101CC0009BB2002B0CBF01230023DBB21A460CE0B1
:101CD000FB681B689B69DA43BB6813409BB2002B0F
:101CE0000CBF01230023DBB21A46FB799A42B6D01F
:101CF000002318461037BD4680BD80B584B000AFC4
:101D0000F860B9607A603B6051E0FB681B685B6912
:101D100003F48063B3F5806F23D1FB681B68FA6816
:101D20001268126842F400721A60FB681B686FF454
:101D300080625A61FB6800221A63FB68202283F8E4
:101D40003D20FB68002283F83E20FB681B6C43F0BB
:101D50000402FB681A64FB68002283F83C2001231C
:101D600046E07B68B3F1FF3F21D0FEF757FF024604
:101D70003B68D21A7B689A4202D87B68002B16D146
:101D8000FB6800221A63FB68202283F83D20FB6871
:101D9000002283F83E20FB681B6C43F02002FB68A6
:101DA0001A64FB68002283F83C20012320E0BB6812
:101DB0001B0CDBB2012B0CD1FB681B685B69DA439F
:101DC000BB6813409BB2002B14BF01230023DBB27E
:101DD0000BE0FB681B689B69DA43BB6813409BB24E
:101DE000002B14BF01230023DBB2002B8DD1002375
:101DF00018461037BD4680BD80B584B000AFF8608E
:101E0000B9607A602DE0F86800F0CEF80346002B48
:101E100001D001232DE0BB68B3F1FF3F21D0FEF7D5
:101E2000FDFE02467B68D21ABB689A4202D8BB68A4
:101E3000002B16D1FB6800221A63FB68202283F86E
:101E40003D20FB68002283F83E20FB681B6C43F0BA
:101E50002002FB681A64FB68002283F83C200123FF
:101E600007E0FB681B685B6903F08003802BCAD125
:101E7000002318461037BD4680BD80B584B000AF42
:101E8000F860B9607A602DE0F86800F08DF80346DC
:101E9000002B01D001232DE0BB68B3F1FF3F21D01F
:101EA000FEF7BCFE02467B68D21ABB689A4202D893
:101EB000BB68002B16D1FB6800221A63FB68202246
:101EC00083F83D20FB68002283F83E20FB681B6CF2
:101ED00043F02002FB681A64FB68002283F83C2070
:101EE000012307E0FB681B685B6903F00403042B14
:101EF000CAD1002318461037BD4680BD80B584B0D6
:101F000000AFF860B9607A6042E0FB681B685B690B
:101F100003F01003102B19D1FB681B686FF010023F
:101F20005A61FB6800221A63FB68202283F83D2077
:101F3000FB68002283F83E20FB681A6CFB681A6479
:101F4000FB68002283F83C20012329E0FEF766FEAF
:101F500002467B68D21ABB689A4202D8BB68002B43
:101F600016D1FB6800221A63FB68202283F83D200B
:101F7000FB68002283F83E20FB681B6C43F02002C4
:101F8000FB681A64FB68002283F83C20012307E009
:101F9000FB681B685B6903F04003402BB5D100234D
:101FA00018461037BD4680BD80B483B000AF78605E
:101FB0007B681B685B6903F48063B3F5806F1BD19A
:101FC0007B681B686FF480625A617B6800221A6329
:101FD0007B68202283F83D207B68002283F83E2026
:101FE0007B681B6C43F004027B681A647B680022E8
:101FF00083F83C20012300E0002318460C37BD463F
:1020000080BC704780B586B000AF78607B68002BDD
:1020100001D101236CE27B681B6803F00103002BF4
:1020200000F08780924B5B6803F00C03042B0CD00C
:102030008F4B5B6803F00C03082B12D18C4B5B6851
:1020400003F48033B3F5803F0BD1894B1B6803F455
:102050000033002B6CD07B685B68002B68D10123B8
:1020600046E27B685B68B3F5803F06D1804A804BCF
:102070001B6843F4803313602EE07B685B68002BA1
:102080000CD17B4A7A4B1B6823F480331360784A67
:10209000774B1B6823F4802313601DE07B685B682B
:1020A000B3F5A02F0CD1724A714B1B6843F4802307
:1020B00013606F4A6E4B1B6843F4803313600BE070
:1020C0006B4A6B4B1B6823F480331360684A684B80
:1020D0001B6823F4802313607B685B68002B13D09C
:1020E000FEF79CFD386108E0FEF798FD02463B696B
:1020F000D31A642B01D90323FAE15D4B1B6803F467
:102100000033002BF0D014E0FEF788FD386108E0C2
:10211000FEF784FD02463B69D31A642B01D90323E1
:10212000E6E1534B1B6803F40033002BF0D100E0D1
:1021300000BF7B681B6803F00203002B63D04C4B8D
:102140005B6803F00C03002B0BD0494B5B6803F07A
:102150000C03082B1CD1464B5B6803F48033002B27
:1021600016D1434B1B6803F00203002B05D07B689C
:102170001B69012B01D00123BAE13D493C4B1B688F
:1021800023F0F8027B685B69DB0013430B603AE0E5
:102190007B681B69002B20D0364B01221A60FEF7AA
:1021A0003DFD386108E0FEF739FD02463B69D31A70
:1021B000022B01D903239BE12D4B1B6803F0020383
:1021C000002BF0D02A492A4B1B6823F0F8027B68C9
:1021D0005B69DB0013430B6015E0264B00221A609D
:1021E000FEF71CFD386108E0FEF718FD02463B696A
:1021F000D31A022B01D903237AE11D4B1B6803F08C
:102200000203002BF0D17B681B6803F00803002B4E
:102210003AD07B689B69002B19D0174B01221A60BA
:10222000FEF7FCFC386108E0FEF7F8FC02463B696B
:10223000D31A022B01D903235AE10D4B5B6A03F039
:102240000203002BF0D0012000F0DAFA1CE00A4B68
:1022500000221A60FEF7E2FC38610FE0FEF7DEFCB8
:1022600002463B69D31A022B08D9032340E100BF81
:102270000010024000004242800442429E4B5B6AD2
:1022800003F00203002BE9D17B681B6803F0040311
:10229000002B00F0A6800023FB75974BDB6903F051
:1022A0008053002B0DD1944A934BDB6943F080534C
:1022B000D361914BDB6903F08053BB60BB680123A2
:1022C000FB758E4B1B6803F48073002B18D18B4A6F
:1022D0008A4B1B6843F480731360FEF79FFC3861E0
:1022E00008E0FEF79BFC02463B69D31A642B01D938
:1022F0000323FDE0814B1B6803F48073002BF0D0B7
:102300007B68DB68012B06D17B4A7B4B1B6A43F061
:10231000010313622DE07B68DB68002B0CD1764A49
:10232000754B1B6A23F001031362734A724B1B6ADD
:1023300023F0040313621CE07B68DB68052B0CD1DF
:102340006D4A6D4B1B6A43F0040313626A4A6A4B81
:102350001B6A43F0010313620BE0674A664B1B6A7A
:1023600023F001031362644A634B1B6A23F00403E6
:1023700013627B68DB68002B15D0FEF74FFC3861D9
:102380000AE0FEF74BFC02463B69D31A41F2883261
:10239000934201D90323ABE0574B1B6A03F00203BE
:1023A000002BEED014E0FEF739FC38610AE0FEF7AE
:1023B00035FC02463B69D31A41F28832934201D977
:1023C000032395E04C4B1B6A03F00203002BEED174
:1023D000FB7D012B05D1484A474BDB6923F0805335
:1023E000D3617B68DB69002B00F08180424B5B6826
:1023F00003F00C03082B61D07B68DB69022B46D10C
:102400003F4B00221A60FEF709FC386108E0FEF736
:1024100005FC02463B69D31A022B01D9032367E06E
:10242000354B1B6803F00073002BF0D17B681B6AEF
:10243000B3F5803F08D130492F4B5B6823F400325D
:102440007B689B6813434B602B482B4B5B6823F4E2
:1024500074127B68196A7B685B6A0B4313434360A1
:10246000274B01221A60FEF7D9FB386108E0FEF71E
:10247000D5FB02463B69D31A022B01D9032337E06F
:102480001D4B1B6803F00073002BF0D02FE01C4B9A
:1024900000221A60FEF7C2FB386108E0FEF7BEFBBF
:1024A00002463B69D31A022B01D9032320E0124BC9
:1024B0001B6803F00073002BF0D118E07B68DB6928
:1024C000012B01D1012313E00B4B5B68FB60FB6820
:1024D00003F480327B681B6A9A4206D1FB6803F4DE
:1024E00070127B685B6A9A4201D0012300E00023EE
:1024F00018461837BD4680BD0010024000700040ED
:102500006000424280B584B000AF786039607B687B
:10251000002B01D10123D0E06A4B1B6803F00702B6
:102520003B689A4210D26749664B1B6823F007024A
:102530003B6813430B60634B1B6803F007023B6867
:102540009A4201D00123B8E07B681B6803F00203C4
:10255000002B20D07B681B6803F00403002B05D000
:10256000594A594B5B6843F4E06353607B681B68CE
:1025700003F00803002B05D0534A534B5B6843F428
:10258000605353605049504B5B6823F0F0027B6806
:102590009B6813434B607B681B6803F00103002BAF
:1025A00040D07B685B68012B07D1474B1B6803F465
:1025B0000033002B15D101237FE07B685B68022B81
:1025C00007D1414B1B6803F00073002B09D1012395
:1025D00073E03D4B1B6803F00203002B01D1012384
:1025E0006BE03949384B5B6823F003027B685B681A
:1025F00013434B60FEF712FBF8600AE0FEF70EFB98
:102600000246FB68D31A41F28832934201D9032370
:1026100053E02D4B5B6803F00C027B685B689B000A
:102620009A42EBD1274B1B6803F007023B689A42A2
:1026300010D92449234B1B6823F007023B6813433E
:102640000B60204B1B6803F007023B689A4201D0E5
:10265000012332E07B681B6803F00403002B08D0E1
:102660001949194B5B6823F4E0627B68DB6813430C
:102670004B607B681B6803F00803002B09D01249EC
:10268000114B5B6823F460527B681B69DB001343CA
:102690004B6000F021F801460B4B5B681B0903F00F
:1026A0000F030A4AD35C21FA03F3094A1360094B6A
:1026B0001B681846FEF770FA002318461037BD460F
:1026C00080BD00BF0020024000100240A43100087D
:1026D000080000200000002090B48AB000AF2A4B10
:1026E0003C1D0FCB84E80F00284B1B883B80002348
:1026F000FB610023BB6100237B6200237B6100231D
:102700003B62234B5B68FB61FB6903F00C03042B0A
:1027100002D0082B03D02DE01E4B3B622DE0FB695D
:102720009B0C03F00F0307F12802134413F8243C19
:102730007B61FB6903F48033002B13D0144B5B687F
:102740005B0C03F0010307F12802134413F8283C43
:10275000BB617B690F4A02FB03F2BB69B2FBF3F377
:102760007B6204E07B690C4A02FB03F37B627B6AB9
:102770003B6202E0074B3B6200BF3B6A18462837CA
:10278000BD4690BC704700BF90310008A0310008E2
:102790000010024000127A0000093D0080B400AF32
:1027A000024B1B681846BD4680BC704708000020DD
:1027B00080B500AFFFF7F2FF0146054B5B681B0ACF
:1027C00003F00703034AD35C21FA03F3184680BDE4
:1027D00000100240B431000880B500AFFFF7DEFF03
:1027E0000146054B5B68DB0A03F00703034AD35C31
:1027F00021FA03F3184680BD00100240B4310008EE
:1028000080B485B000AF78600A4B1B680A4AA2FB0F
:1028100003235B0A7A6802FB03F3FB6000BFFB68DB
:102820005A1EFA60002BF9D100BF1437BD4680BC98
:10283000704700BF08000020D34D621080B582B001
:1028400000AF78607B68002B01D101233FE07B68FB
:1028500093F83930DBB2002B06D17B68002283F875
:102860003820786800F0CAFA7B68242283F839207F
:102870007B681B687A681268D26822F40052DA60BA
:10288000786800F029F87B681B687A68126812691A
:1028900022F490421A617B681B687A681268526958
:1028A00022F02A025A617B681B687A681268D26833
:1028B00042F40052DA607B680022DA637B682022EF
:1028C00083F839207B68202283F83A2000231846B9
:1028D0000837BD4680BD000090B585B000AF786078
:1028E0007B681B687A681268126922F440517A6822
:1028F000D2680A431A617B689A687B681B691A432D
:102900007B685B691343FB607B681A687B681B68A4
:10291000DB6823F4B05323F00C03F9680B43D36056
:102920007B681B687A681268526922F440717A6881
:1029300092690A435A617B681B68524A93424ED19E
:10294000FFF74AFFB8607B681968BA6813469B00B6
:1029500013449A001A447B685B689B00B2FBF3F354
:10296000494AA2FB03235B091801BA6813469B007E
:1029700013449A001A447B685B689B00B2FBF3F235
:10298000414BA3FB02435B09642404FB03F3D31A0A
:102990001B0132333C4AA2FB03235B0903F0F00323
:1029A0001844BA6813469B0013449A001A447B6883
:1029B0005B689B00B2FBF3F2334BA3FB02435B0962
:1029C000642404FB03F3D31A1B0132332E4AA2FB07
:1029D00003235B0903F00F0303448B604DE0FFF713
:1029E000E7FEB8607B681968BA6813469B00134419
:1029F0009A001A447B685B689B00B2FBF3F3224A9F
:102A0000A2FB03235B091801BA6813469B00134419
:102A10009A001A447B685B689B00B2FBF3F21A4B86
:102A2000A3FB02435B09642404FB03F3D31A1B01D9
:102A30003233154AA2FB03235B0903F0F003184469
:102A4000BA6813469B0013449A001A447B685B687B
:102A50009B00B2FBF3F20C4BA3FB02435B09642423
:102A600004FB03F3D31A1B013233074AA2FB0323EF
:102A70005B0903F00F0303448B6000BF1437BD46AE
:102A800090BD00BF003801401F85EB5180B485B078
:102A900000AF144A134B9B6943F020039361114B21
:102AA0009B6903F02003FB60FB680E4A0D4B9B699A
:102AB00043F0080393610B4B9B6903F00803BB6071
:102AC000BB68084A074B9B6943F004039361054BBD
:102AD0009B6903F004037B607B6800BF1437BD462D
:102AE00080BC70470010024080B500AF124B134A03
:102AF0001A60114B124A5A600F4B00229A600E4B1B
:102B00000022DA600C4B4FF480421A610A4B00221B
:102B10005A61094B00229A61074B0022DA61064B89
:102B200000221A620448FEF7E1FA0346002B01D0A6
:102B300000F0A3F800BF80BD2C000020005800402A
:102B4000A086010080B588B000AF786007F110035F
:102B500000221A605A609A60DA607B681B68164A25
:102B6000934224D1154A154B9B6943F008039361A6
:102B7000124B9B6903F00803FB60FB684FF4406352
:102B80003B6112237B610323FB6107F110031946AC
:102B90000B48FEF751F9094A084BDB6943F48003FF
:102BA000D361064BDB6903F48003BB60BB6800BFE5
:102BB0002037BD4680BD00BF0058004000100240D5
:102BC000000C014080B582B000AFFDF7CFFF00F0F0
:102BD00019F8FFF75BFFFFF787FF00F0E5F800F05B
:102BE00059F93B461A1D3B46991C3B46184600F0D6
:102BF0004DFA00F011FA0346FB804FF4FA70FEF72D
:102C000017F8EEE780B590B000AF07F1180328225F
:102C100000211846FDF736FF3B1D00221A605A605E
:102C20009A60DA601A610223BB610123BB62102340
:102C3000FB6200237B6307F118031846FFF7E2F9F4
:102C40000346002B01D000F018F80F237B6000230F
:102C5000BB600023FB6000233B6100237B613B1DC5
:102C600000211846FFF74EFC0346002B01D000F070
:102C700004F800BF4037BD4680BD80B400AF00BF40
:102C8000BD4680BC7047000080B485B000AF154AD7
:102C9000144B9B6943F001039361124B9B6903F052
:102CA0000103BB60BB680F4A0E4BDB6943F08053E6
:102CB000D3610C4BDB6903F080537B607B680A4B6C
:102CC0005B68FB60FB6823F0E063FB60FB6843F03C
:102CD0000073FB60044AFB68536000BF1437BD46B5
:102CE00080BC7047001002400000014080B400AF7B
:102CF00000BFBD4680BC704780B400AFFEE780B423
:102D000000AFFEE780B400AFFEE780B400AFFEE79F
:102D100080B400AF00BFBD4680BC704780B400AF38
:102D200000BFBD4680BC704780B400AF00BFBD4649
:102D300080BC704780B500AFFDF75EFF00BF80BD6F
:102D400080B400AF154A154B1B6843F001031360B4
:102D50001249124B5A68124B13404B600F4A0F4BEB
:102D60001B6823F0847323F4803313600B4A0B4BEE
:102D70001B6823F480231360084A084B5B6823F424
:102D8000FE035360054B4FF41F029A60054B4FF052
:102D900000629A6000BFBD4680BC704700100240D0
:102DA0000000FFF800ED00E080B500AF114B124AC3
:102DB0001A60104B4FF4E1325A600E4B00229A60B9
:102DC0000C4B0022DA600B4B00221A61094B0C22DB
:102DD0005A61084B00229A61064B0022DA610548CD
:102DE000FFF72CFD0346002B01D0FFF746FF00BF85
:102DF00080BD00BF800000200038014080B588B051
:102E000000AF786007F1100300221A605A609A60E0
:102E1000DA607B681B681C4A934231D11B4A1B4B0A
:102E20009B6943F480439361184B9B6903F480438F
:102E3000FB60FB68154A154B9B6943F004039361E3
:102E4000124B9B6903F00403BB60BB684FF4007333
:102E50003B6102237B610323FB6107F110031946E9
:102E60000B48FDF7E9FF4FF480633B6100237B6172
:102E70000023BB6107F1100319460548FDF7DCFF8D
:102E800000BF2037BD4680BD003801400010024021
:102E90000008014080B582B000AF0023BB71002361
:102EA000FB71012380226B21D02000F021F9322018
:102EB000FDF7BEFE012303226B21D02000F018F99C
:102EC0003220FDF7B5FE3220FDF7B2FE192000F0EA
:102ED00082F80F20FDF7ACFE192000F049F803201E
:102EE00000F022F8022000F031F808238222372176
:102EF000D02000F0FDF8012300226C21D02000F04A
:102F0000F7F8BA1D01237521D12000F013F9BB7920
:102F1000682B02D10023FB7101E00123FB71FB79D7
:102F200018460837BD4680BD80B582B000AF034665
:102F3000FB71FB79DB001A4601231B21D02000F036
:102F4000D7F8034618460837BD4680BD80B582B025
:102F500000AF0346FB71FB79DB001A4601231C21FD
:102F6000D02000F0C5F8034618460837BD4680BD9E
:102F700080B584B000AF0346FB710023FB73FB797F
:102F8000BB2B02D90123FB7319E0FB79612B02D91A
:102F90000223FB7313E0FB79292B02D90323FB7374
:102FA0000DE0FB79132B02D90423FB7307E0FB79B7
:102FB000092B02D90523FB7301E00623FB7307F1FC
:102FC0000F0201231A21D02000F092F80346184680
:102FD0001037BD4680BD80B584B000AF0346FB719D
:102FE000FB79032B01D80423FB71FB794FF47A7230
:102FF00092FBF3F3DBB2013BDBB2FB7307F10F0291
:1030000001231921D02000F073F803461846103729
:10301000BD4680BD0000000090B585B000AF3A1DF0
:1030200002234121682000F085F83B791B021AB287
:103030007B791BB21343FB81B7F90E301846FDF7BD
:103040000BFA4FF00002104BFDF796FB03460C46BF
:10305000184621460AA3D3E90023FDF7B1F8034639
:103060000C4618462146FDF76FFC0346BB60B86866
:10307000FDF7BAFC03461BB218461437BD4690BD97
:10308000A4703D0AD74342400040754080B586B0E9
:1030900000AFF860B9607A6007F11002062343219F
:1030A000D12000F047F80346FB75FB7D002B1AD1B9
:1030B0003B7C1B021AB27B7C1BB213431AB2FB6827
:1030C0001A80BB7C1B021AB2FB7C1BB213431AB2E0
:1030D000BB681A803B7D1B021AB27B7D1BB2134377
:1030E0001AB27B681A80FB7D18461837BD4680BD32
:1030F00080B586B004AF3A601A460346FB710B46B2
:10310000BB7113467B71FB7999B2BB7998B27B791D
:103110009BB26422029201933B6800930123024612
:103120000348FEF70BF9002318460837BD4680BD5B
:103130002C00002080B586B004AF3A601A460346E2
:10314000FB710B46BB7113467B71FB7999B2BB795E
:1031500098B27B799BB26422029201933B68009300
:10316000012302460348FEF7E3F900231846083717
:10317000BD4680BD2C000020F8B500BFF8BC08BCDF
:103180009E467047F8B500BFF8BC08BC9E46704725
:1031900002030405060708090A0B0C0D0E0F101098
:1031A0000102000000000000000000000102030412
:0C31B000060708090000000001020304EB
:0431BC007D01000889
:0431C00055010008AD
:0C31C40010000000010000000024F400D6
:0400000508000B21C3
:00000001FF
